{
  "_format": "hh-sol-artifact-1",
  "contractName": "PinionApp",
  "sourceName": "contracts/PinionApp.sol",
  "abi": [
    {
      "inputs": [],
      "stateMutability": "payable",
      "type": "constructor"
    },
    {
      "anonymous": false,
      "inputs": [
        {
          "indexed": true,
          "internalType": "address",
          "name": "from",
          "type": "address"
        },
        {
          "indexed": false,
          "internalType": "uint256",
          "name": "timestamp",
          "type": "uint256"
        },
        {
          "indexed": false,
          "internalType": "string",
          "name": "message",
          "type": "string"
        }
      ],
      "name": "SetLike",
      "type": "event"
    },
    {
      "inputs": [],
      "name": "getAllUsers",
      "outputs": [
        {
          "components": [
            {
              "internalType": "address",
              "name": "user",
              "type": "address"
            },
            {
              "internalType": "string",
              "name": "message",
              "type": "string"
            },
            {
              "internalType": "uint256",
              "name": "timestamp",
              "type": "uint256"
            }
          ],
          "internalType": "struct PinionApp.User[]",
          "name": "",
          "type": "tuple[]"
        }
      ],
      "stateMutability": "view",
      "type": "function"
    },
    {
      "inputs": [],
      "name": "getTotalLikes",
      "outputs": [
        {
          "internalType": "uint256",
          "name": "",
          "type": "uint256"
        }
      ],
      "stateMutability": "view",
      "type": "function"
    },
    {
      "inputs": [
        {
          "internalType": "address",
          "name": "",
          "type": "address"
        }
      ],
      "name": "lastLikedAt",
      "outputs": [
        {
          "internalType": "uint256",
          "name": "",
          "type": "uint256"
        }
      ],
      "stateMutability": "view",
      "type": "function"
    },
    {
      "inputs": [
        {
          "internalType": "string",
          "name": "_message",
          "type": "string"
        }
      ],
      "name": "like",
      "outputs": [],
      "stateMutability": "nonpayable",
      "type": "function"
    }
  ],
  "bytecode": "0x60806040526200004f6040518060400160405280601581526020017f57656c636f6d6520746f2050696e696f6e4170702100000000000000000000008152506200007760201b620006471760201c565b606444426200005f9190620001c4565b6200006b919062000261565b60018190555062000308565b62000117816040516024016200008e919062000184565b6040516020818303038152906040527f41304fac000000000000000000000000000000000000000000000000000000007bffffffffffffffffffffffffffffffffffffffffffffffffffffffff19166020820180517bffffffffffffffffffffffffffffffffffffffffffffffffffffffff83818316178352505050506200011a60201b60201c565b50565b60008151905060006a636f6e736f6c652e6c6f679050602083016000808483855afa5050505050565b60006200015082620001a8565b6200015c8185620001b3565b93506200016e8185602086016200022b565b6200017981620002f7565b840191505092915050565b60006020820190508181036000830152620001a0818462000143565b905092915050565b600081519050919050565b600082825260208201905092915050565b6000620001d18262000221565b9150620001de8362000221565b9250827fffffffffffffffffffffffffffffffffffffffffffffffffffffffffffffffff0382111562000216576200021562000299565b5b828201905092915050565b6000819050919050565b60005b838110156200024b5780820151818401526020810190506200022e565b838111156200025b576000848401525b50505050565b60006200026e8262000221565b91506200027b8362000221565b9250826200028e576200028d620002c8565b5b828206905092915050565b7f4e487b7100000000000000000000000000000000000000000000000000000000600052601160045260246000fd5b7f4e487b7100000000000000000000000000000000000000000000000000000000600052601260045260246000fd5b6000601f19601f8301169050919050565b61123980620003186000396000f3fe608060405234801561001057600080fd5b506004361061004c5760003560e01c8063104b7918146100515780632edf21681461006f578063e24246531461008b578063e2842d79146100bb575b600080fd5b6100596100d9565b6040516100669190610ddb565b60405180910390f35b61008960048036038101906100849190610a29565b6100e2565b005b6100a560048036038101906100a09190610a00565b6104de565b6040516100b29190610ddb565b60405180910390f35b6100c36104f6565b6040516100d09190610c92565b60405180910390f35b60008054905090565b42610384600360003373ffffffffffffffffffffffffffffffffffffffff1673ffffffffffffffffffffffffffffffffffffffff168152602001908152602001600020546101309190610eed565b10610170576040517f08c379a000000000000000000000000000000000000000000000000000000000815260040161016790610d9b565b60405180910390fd5b42600360003373ffffffffffffffffffffffffffffffffffffffff1673ffffffffffffffffffffffffffffffffffffffff1681526020019081526020016000208190555060016000808282546101c69190610eed565b9250508190555061020d6040518060400160405280601481526020017f557365722025732070696e696f6e65643a20257300000000000000000000000081525033836106e0565b600260405180606001604052803373ffffffffffffffffffffffffffffffffffffffff16815260200183815260200142815250908060018154018082558091505060019003906000526020600020906003020160009091909190915060008201518160000160006101000a81548173ffffffffffffffffffffffffffffffffffffffff021916908373ffffffffffffffffffffffffffffffffffffffff16021790555060208201518160010190805190602001906102cc9291906108e0565b50604082015181600201555050606460015444426102ea9190610eed565b6102f49190610eed565b6102fe9190611024565b6001819055506103456040518060400160405280601981526020017f52616e646f6d2067656e65726174656420736565643a2025640000000000000081525060015461077f565b60326001541161048b5761038e6040518060400160405280600781526020017f257320776f6e21000000000000000000000000000000000000000000000000008152503361081b565b60006509184e72a0009050478111156103dc576040517f08c379a00000000000000000000000000000000000000000000000000000000081526004016103d390610d7b565b60405180910390fd5b60003373ffffffffffffffffffffffffffffffffffffffff168260405161040290610c7d565b60006040518083038185875af1925050503d806000811461043f576040519150601f19603f3d011682016040523d82523d6000602084013e610444565b606091505b5050905080610488576040517f08c379a000000000000000000000000000000000000000000000000000000000815260040161047f90610dbb565b60405180910390fd5b50505b3373ffffffffffffffffffffffffffffffffffffffff167f9528e843e2332fb709720e9f8220f367d64254ec25ffda426467f1c49fcac01f42836040516104d3929190610df6565b60405180910390a250565b60036020528060005260406000206000915090505481565b60606002805480602002602001604051908101604052809291908181526020016000905b8282101561063e57838290600052602060002090600302016040518060600160405290816000820160009054906101000a900473ffffffffffffffffffffffffffffffffffffffff1673ffffffffffffffffffffffffffffffffffffffff1673ffffffffffffffffffffffffffffffffffffffff1681526020016001820180546105a390610fc1565b80601f01602080910402602001604051908101604052809291908181526020018280546105cf90610fc1565b801561061c5780601f106105f15761010080835404028352916020019161061c565b820191906000526020600020905b8154815290600101906020018083116105ff57829003601f168201915b505050505081526020016002820154815250508152602001906001019061051a565b50505050905090565b6106dd8160405160240161065b9190610cb4565b6040516020818303038152906040527f41304fac000000000000000000000000000000000000000000000000000000007bffffffffffffffffffffffffffffffffffffffffffffffffffffffff19166020820180517bffffffffffffffffffffffffffffffffffffffffffffffffffffffff83818316178352505050506108b7565b50565b61077a8383836040516024016106f893929190610d06565b6040516020818303038152906040527fe0e9ad4f000000000000000000000000000000000000000000000000000000007bffffffffffffffffffffffffffffffffffffffffffffffffffffffff19166020820180517bffffffffffffffffffffffffffffffffffffffffffffffffffffffff83818316178352505050506108b7565b505050565b6108178282604051602401610795929190610d4b565b6040516020818303038152906040527f9710a9d0000000000000000000000000000000000000000000000000000000007bffffffffffffffffffffffffffffffffffffffffffffffffffffffff19166020820180517bffffffffffffffffffffffffffffffffffffffffffffffffffffffff83818316178352505050506108b7565b5050565b6108b38282604051602401610831929190610cd6565b6040516020818303038152906040527f319af333000000000000000000000000000000000000000000000000000000007bffffffffffffffffffffffffffffffffffffffffffffffffffffffff19166020820180517bffffffffffffffffffffffffffffffffffffffffffffffffffffffff83818316178352505050506108b7565b5050565b60008151905060006a636f6e736f6c652e6c6f679050602083016000808483855afa5050505050565b8280546108ec90610fc1565b90600052602060002090601f01602090048101928261090e5760008555610955565b82601f1061092757805160ff1916838001178555610955565b82800160010185558215610955579182015b82811115610954578251825591602001919060010190610939565b5b5090506109629190610966565b5090565b5b8082111561097f576000816000905550600101610967565b5090565b600061099661099184610e4b565b610e26565b9050828152602081018484840111156109ae57600080fd5b6109b9848285610f7f565b509392505050565b6000813590506109d0816111ec565b92915050565b600082601f8301126109e757600080fd5b81356109f7848260208601610983565b91505092915050565b600060208284031215610a1257600080fd5b6000610a20848285016109c1565b91505092915050565b600060208284031215610a3b57600080fd5b600082013567ffffffffffffffff811115610a5557600080fd5b610a61848285016109d6565b91505092915050565b6000610a768383610c0f565b905092915050565b610a8781610f43565b82525050565b610a9681610f43565b82525050565b6000610aa782610e8c565b610ab18185610eaf565b935083602082028501610ac385610e7c565b8060005b85811015610aff5784840389528151610ae08582610a6a565b9450610aeb83610ea2565b925060208a01995050600181019050610ac7565b50829750879550505050505092915050565b6000610b1c82610e97565b610b268185610ecb565b9350610b36818560208601610f8e565b610b3f81611111565b840191505092915050565b6000610b5582610e97565b610b5f8185610edc565b9350610b6f818560208601610f8e565b610b7881611111565b840191505092915050565b6000610b90603483610edc565b9150610b9b82611122565b604082019050919050565b6000610bb3600a83610edc565b9150610bbe82611171565b602082019050919050565b6000610bd6602583610edc565b9150610be18261119a565b604082019050919050565b6000610bf9600083610ec0565b9150610c04826111e9565b600082019050919050565b6000606083016000830151610c276000860182610a7e565b5060208301518482036020860152610c3f8282610b11565b9150506040830151610c546040860182610c5f565b508091505092915050565b610c6881610f75565b82525050565b610c7781610f75565b82525050565b6000610c8882610bec565b9150819050919050565b60006020820190508181036000830152610cac8184610a9c565b905092915050565b60006020820190508181036000830152610cce8184610b4a565b905092915050565b60006040820190508181036000830152610cf08185610b4a565b9050610cff6020830184610a8d565b9392505050565b60006060820190508181036000830152610d208186610b4a565b9050610d2f6020830185610a8d565b8181036040830152610d418184610b4a565b9050949350505050565b60006040820190508181036000830152610d658185610b4a565b9050610d746020830184610c6e565b9392505050565b60006020820190508181036000830152610d9481610b83565b9050919050565b60006020820190508181036000830152610db481610ba6565b9050919050565b60006020820190508181036000830152610dd481610bc9565b9050919050565b6000602082019050610df06000830184610c6e565b92915050565b6000604082019050610e0b6000830185610c6e565b8181036020830152610e1d8184610b4a565b90509392505050565b6000610e30610e41565b9050610e3c8282610ff3565b919050565b6000604051905090565b600067ffffffffffffffff821115610e6657610e656110e2565b5b610e6f82611111565b9050602081019050919050565b6000819050602082019050919050565b600081519050919050565b600081519050919050565b6000602082019050919050565b600082825260208201905092915050565b600081905092915050565b600082825260208201905092915050565b600082825260208201905092915050565b6000610ef882610f75565b9150610f0383610f75565b9250827fffffffffffffffffffffffffffffffffffffffffffffffffffffffffffffffff03821115610f3857610f37611055565b5b828201905092915050565b6000610f4e82610f55565b9050919050565b600073ffffffffffffffffffffffffffffffffffffffff82169050919050565b6000819050919050565b82818337600083830152505050565b60005b83811015610fac578082015181840152602081019050610f91565b83811115610fbb576000848401525b50505050565b60006002820490506001821680610fd957607f821691505b60208210811415610fed57610fec6110b3565b5b50919050565b610ffc82611111565b810181811067ffffffffffffffff8211171561101b5761101a6110e2565b5b80604052505050565b600061102f82610f75565b915061103a83610f75565b92508261104a57611049611084565b5b828206905092915050565b7f4e487b7100000000000000000000000000000000000000000000000000000000600052601160045260246000fd5b7f4e487b7100000000000000000000000000000000000000000000000000000000600052601260045260246000fd5b7f4e487b7100000000000000000000000000000000000000000000000000000000600052602260045260246000fd5b7f4e487b7100000000000000000000000000000000000000000000000000000000600052604160045260246000fd5b6000601f19601f8301169050919050565b7f547279696e6720746f207769746864726177206d6f7265206d6f6e657920746860008201527f616e2074686520636f6e7472616374206861732e000000000000000000000000602082015250565b7f576169742031356d696e00000000000000000000000000000000000000000000600082015250565b7f4661696c656420746f207769746864726177206574682066726f6d20636f6e7460008201527f7261637421000000000000000000000000000000000000000000000000000000602082015250565b50565b6111f581610f43565b811461120057600080fd5b5056fea264697066735822122022520c47aba5959314c13ae4c56de8ba1faee1643b3f40e442a142886b9068e664736f6c63430008040033",
  "linkReferences": {},
  "deployedLinkReferences": {}
}